:1000000012C02CC02BC02AC029C028C027C026C0BF
:1000100025C024C023C022C021C020C01FC01EC0D4
:100020001DC01EC11BC011241FBECFE5D4E0DEBF22
:10003000CDBF10E0A0E6B0E0E8E3F3E002C0059039
:100040000D92A236B107D9F710E0A2E6B0E001C0E8
:100050001D92A538B107E1F731D06CC1D1CF20E0B6
:1000600030E042EE54E005C0FA013197F1F72F5F1E
:100070003F4F28173907C0F308952FB7F89491EA36
:100080009FBD8EBD2FBF08952FB7F89490E09BBD04
:100090008ABD70E079BD68BD2FBF089580EF81BB38
:1000A00082BB87B3866087BB089514BA8FE085BB97
:1000B00083B380958F70880F7DD00895FF920F9342
:1000C0001F93DF93CF9300D000D0CDB7DEB780EF82
:1000D00081BB82BB87B3866087BB9FB7F89481EAF8
:1000E0008FBD83E08EBD9FBF7894DFDF8ED08E0101
:1000F0000F5F1F4F31EAF32E63D08823E9F7809119
:10010000620083708330C1F7C80163E089D08981C0
:10011000813A09F1823A30F4823891F0843809F05A
:1001200046C033C0853A19F18A3A09F040C08A8145
:1001300090E024E0880F991F2A95E1F782BB38C030
:100140008FB7F8942A8130E03BBD2ABD2B8130E087
:1001500039BD28BD23C090B38A8182958073907C7D
:10016000892B82BB8B8190E09BBD8ABD21C090B35F
:100170008A818295880F880F807C9073892B82BB3F
:100180008B8190E099BD88BD13C09A81892F8150E1
:10019000853030F48FB7F894FFBC9EBD8FBF08C088
:1001A0009FB7F894FFBC83E08EBD9FBF01C00000E5
:1001B0002CD0A2CF82B98FEF83B984E086BF089597
:1001C00086B78170089506B600FCFDCF809160006F
:1001D0000895482F292F06B600FCFDCF60936300D9
:1001E000A5E6B0E0842F922F9C01F90102C0819115
:1001F0008D938E2F841B8617D0F31092620088EFA8
:100200008093600085EC86BF089506B600FCFDCFA4
:100210001092620088EF8093600085EC86BF08959D
:10022000AC0106B600FCFDCF8091620080FF14C0D7
:1002300020E030E00AC0FA01E20FF31FD901AB5908
:10024000BF4F8C9180832F5F3F4F2617A0F3809183
:1002500062008D7F809362008091620081700895BA
:100260001F920F920FB60F9211248F939F93EF93CB
:10027000FF9381B18039F1F1813940F4803769F120
:100280008038C1F1803609F047C02CC0883A59F057
:10029000893A20F4803A09F03FC041C0883B29F0F8
:1002A000803CD1F50EC01092640090916400E92F5B
:1002B000F0E0EB59FF4F808183B99F5F909364001A
:1002C00029C09091640080916300981729F580916E
:1002D000620081608093620022C08091620084602D
:1002E000809362008091620082608093620010922D
:1002F000640010C08091640093B1E82FF0E0EB59E6
:10030000FF4F90838F5F80936400809162008160D3
:100310008093620085EC04C081B18093600084E02A
:1003200086BFFF91EF919F918F910F900FBE0F901D
:080330001F901895F894FFCF0F
:02033800F800CB
:00000001FF
